{
  "contractName": "GamblingGame",
  "abi": [
    {
      "inputs": [
        {
          "internalType": "uint256",
          "name": "_N",
          "type": "uint256"
        },
        {
          "internalType": "uint256",
          "name": "_stakeAmount",
          "type": "uint256"
        }
      ],
      "stateMutability": "nonpayable",
      "type": "constructor"
    },
    {
      "anonymous": false,
      "inputs": [
        {
          "indexed": false,
          "internalType": "address",
          "name": "",
          "type": "address"
        }
      ],
      "name": "Winner",
      "type": "event"
    },
    {
      "inputs": [],
      "name": "N",
      "outputs": [
        {
          "internalType": "uint256",
          "name": "",
          "type": "uint256"
        }
      ],
      "stateMutability": "view",
      "type": "function",
      "constant": true
    },
    {
      "inputs": [],
      "name": "canCallGetRandomNumber",
      "outputs": [
        {
          "internalType": "bool",
          "name": "",
          "type": "bool"
        }
      ],
      "stateMutability": "view",
      "type": "function",
      "constant": true
    },
    {
      "inputs": [],
      "name": "contractBalance",
      "outputs": [
        {
          "internalType": "uint256",
          "name": "",
          "type": "uint256"
        }
      ],
      "stateMutability": "view",
      "type": "function",
      "constant": true
    },
    {
      "inputs": [],
      "name": "currentStakers",
      "outputs": [
        {
          "internalType": "uint256",
          "name": "",
          "type": "uint256"
        }
      ],
      "stateMutability": "view",
      "type": "function",
      "constant": true
    },
    {
      "inputs": [
        {
          "internalType": "uint256",
          "name": "",
          "type": "uint256"
        }
      ],
      "name": "indexToStakerMapping",
      "outputs": [
        {
          "internalType": "address",
          "name": "",
          "type": "address"
        }
      ],
      "stateMutability": "view",
      "type": "function",
      "constant": true
    },
    {
      "inputs": [],
      "name": "owner",
      "outputs": [
        {
          "internalType": "address",
          "name": "",
          "type": "address"
        }
      ],
      "stateMutability": "view",
      "type": "function",
      "constant": true
    },
    {
      "inputs": [],
      "name": "randomResult",
      "outputs": [
        {
          "internalType": "uint256",
          "name": "",
          "type": "uint256"
        }
      ],
      "stateMutability": "view",
      "type": "function",
      "constant": true
    },
    {
      "inputs": [
        {
          "internalType": "bytes32",
          "name": "requestId",
          "type": "bytes32"
        },
        {
          "internalType": "uint256",
          "name": "randomness",
          "type": "uint256"
        }
      ],
      "name": "rawFulfillRandomness",
      "outputs": [],
      "stateMutability": "nonpayable",
      "type": "function"
    },
    {
      "inputs": [],
      "name": "stakeAmount",
      "outputs": [
        {
          "internalType": "uint256",
          "name": "",
          "type": "uint256"
        }
      ],
      "stateMutability": "view",
      "type": "function",
      "constant": true
    },
    {
      "inputs": [
        {
          "internalType": "address",
          "name": "",
          "type": "address"
        }
      ],
      "name": "stakerMapping",
      "outputs": [
        {
          "internalType": "uint256",
          "name": "",
          "type": "uint256"
        }
      ],
      "stateMutability": "view",
      "type": "function",
      "constant": true
    },
    {
      "inputs": [],
      "name": "winnerAddress",
      "outputs": [
        {
          "internalType": "address",
          "name": "",
          "type": "address"
        }
      ],
      "stateMutability": "view",
      "type": "function",
      "constant": true
    },
    {
      "inputs": [],
      "name": "winnerDeclared",
      "outputs": [
        {
          "internalType": "bool",
          "name": "",
          "type": "bool"
        }
      ],
      "stateMutability": "view",
      "type": "function",
      "constant": true
    },
    {
      "inputs": [],
      "name": "stake",
      "outputs": [],
      "stateMutability": "payable",
      "type": "function",
      "payable": true
    },
    {
      "inputs": [],
      "name": "unstake",
      "outputs": [],
      "stateMutability": "nonpayable",
      "type": "function"
    },
    {
      "inputs": [],
      "name": "getRandomNumber",
      "outputs": [
        {
          "internalType": "bytes32",
          "name": "requestId",
          "type": "bytes32"
        }
      ],
      "stateMutability": "nonpayable",
      "type": "function"
    },
    {
      "inputs": [],
      "name": "sendReward",
      "outputs": [],
      "stateMutability": "nonpayable",
      "type": "function"
    },
    {
      "inputs": [],
      "name": "withdrawEth",
      "outputs": [],
      "stateMutability": "nonpayable",
      "type": "function"
    },
    {
      "inputs": [],
      "name": "withdrawLink",
      "outputs": [],
      "stateMutability": "nonpayable",
      "type": "function"
    },
    {
      "inputs": [
        {
          "internalType": "uint256",
          "name": "_N",
          "type": "uint256"
        },
        {
          "internalType": "uint256",
          "name": "_stakeAmount",
          "type": "uint256"
        }
      ],
      "name": "reset",
      "outputs": [],
      "stateMutability": "nonpayable",
      "type": "function"
    }
  ],
  "bytecode": "0x60c06040523480156200001157600080fd5b506040516200298a3803806200298a8339818101604052810190620000379190620001e2565b73dd3782915140c8f3b190b5d67eac6dc5760c46e973a36085f69e2889c224210f603d836748e7dc00888173ffffffffffffffffffffffffffffffffffffffff1660a08173ffffffffffffffffffffffffffffffffffffffff16815250508073ffffffffffffffffffffffffffffffffffffffff1660808173ffffffffffffffffffffffffffffffffffffffff168152505050507f6c3699283bda56ad74f6b855546325b68d482e983852a7a82979cc4807b641f460001b60018190555067016345785d8a000060028190555033600460006101000a81548173ffffffffffffffffffffffffffffffffffffffff021916908373ffffffffffffffffffffffffffffffffffffffff16021790555060038210156200018c576040517f08c379a00000000000000000000000000000000000000000000000000000000081526004016200018390620002b0565b60405180910390fd5b81600581905550806006819055505050620002d2565b600080fd5b6000819050919050565b620001bc81620001a7565b8114620001c857600080fd5b50565b600081519050620001dc81620001b1565b92915050565b60008060408385031215620001fc57620001fb620001a2565b5b60006200020c85828601620001cb565b92505060206200021f85828601620001cb565b9150509250929050565b600082825260208201905092915050565b7f4e756d626572206f6620706c61796572732073686f756c64206265206772656160008201527f746572207468616e206f7220657175616c20746f203300000000000000000000602082015250565b60006200029860368362000229565b9150620002a5826200023a565b604082019050919050565b60006020820190508181036000830152620002cb8162000289565b9050919050565b60805160a0516126766200031460003960008181610ff20152611527015260008181610eb801528181610ef5015281816112ba01526114eb01526126766000f3fe6080604052600436106101145760003560e01c80638b7afe2e116100a0578063a4a91a5311610064578063a4a91a5314610310578063c9e525df1461034d578063dbdff2c114610378578063ed7a4e0b146103a3578063ff2d4812146103ce57610114565b80638b7afe2e146102635780638da5cb5b1461028e5780638dc654a2146102b957806394985ddd146102d0578063a0ef91df146102f957610114565b80633a4b66f1116100e75780633a4b66f1146101ad57806342619f66146101b757806360c7dc47146101e2578063757e0c881461020d5780637df427a91461023857610114565b806306f46df4146101195780631149a81a146101565780631dc436371461016d5780632def662014610196575b600080fd5b34801561012557600080fd5b50610140600480360381019061013b9190611709565b6103f9565b60405161014d919061174f565b60405180910390f35b34801561016257600080fd5b5061016b610411565b005b34801561017957600080fd5b50610194600480360381019061018f9190611796565b610581565b005b3480156101a257600080fd5b506101ab6107dd565b005b6101b5610acc565b005b3480156101c357600080fd5b506101cc610dd5565b6040516101d9919061174f565b60405180910390f35b3480156101ee57600080fd5b506101f7610ddb565b604051610204919061174f565b60405180910390f35b34801561021957600080fd5b50610222610de1565b60405161022f91906117f1565b60405180910390f35b34801561024457600080fd5b5061024d610df4565b60405161025a919061174f565b60405180910390f35b34801561026f57600080fd5b50610278610dfa565b604051610285919061174f565b60405180910390f35b34801561029a57600080fd5b506102a3610e00565b6040516102b0919061181b565b60405180910390f35b3480156102c557600080fd5b506102ce610e26565b005b3480156102dc57600080fd5b506102f760048036038101906102f2919061186c565b610ff0565b005b34801561030557600080fd5b5061030e61108c565b005b34801561031c57600080fd5b50610337600480360381019061033291906118ac565b6111db565b604051610344919061181b565b60405180910390f35b34801561035957600080fd5b5061036261120e565b60405161036f919061174f565b60405180910390f35b34801561038457600080fd5b5061038d611214565b60405161039a91906118e8565b60405180910390f35b3480156103af57600080fd5b506103b86113a6565b6040516103c5919061181b565b60405180910390f35b3480156103da57600080fd5b506103e36113cc565b6040516103f091906117f1565b60405180910390f35b600a6020528060005260406000206000915090505481565b600c60009054906101000a900460ff16610460576040517f08c379a000000000000000000000000000000000000000000000000000000000815260040161045790611986565b60405180910390fd5b60006007544761047091906119d5565b9050600060646063836104839190611a09565b61048d9190611a92565b9050808260075461049e9190611ac3565b6104a891906119d5565b6007819055506000600c60019054906101000a900473ffffffffffffffffffffffffffffffffffffffff1673ffffffffffffffffffffffffffffffffffffffff16826040516104f690611b4a565b60006040518083038185875af1925050503d8060008114610533576040519150601f19603f3d011682016040523d82523d6000602084013e610538565b606091505b505090508061057c576040517f08c379a000000000000000000000000000000000000000000000000000000000815260040161057390611bab565b60405180910390fd5b505050565b600460009054906101000a900473ffffffffffffffffffffffffffffffffffffffff1673ffffffffffffffffffffffffffffffffffffffff163373ffffffffffffffffffffffffffffffffffffffff1614610611576040517f08c379a000000000000000000000000000000000000000000000000000000000815260040161060890611c17565b60405180910390fd5b600c60009054906101000a900460ff16610660576040517f08c379a000000000000000000000000000000000000000000000000000000000815260040161065790611ca9565b60405180910390fd5b610668610411565b61067061108c565b600060038190555081600581905550806006819055506000600960006101000a81548160ff0219169083151502179055506000600c60006101000a81548160ff0219169083151502179055506000600c60016101000a81548173ffffffffffffffffffffffffffffffffffffffff021916908373ffffffffffffffffffffffffffffffffffffffff16021790555060005b6008548110156107d0576000600b600083815260200190815260200160002060009054906101000a900473ffffffffffffffffffffffffffffffffffffffff169050600a60008273ffffffffffffffffffffffffffffffffffffffff1673ffffffffffffffffffffffffffffffffffffffff16815260200190815260200160002060009055600b600083815260200190815260200160002060006101000a81549073ffffffffffffffffffffffffffffffffffffffff02191690555080806107c890611cc9565b915050610701565b5060006008819055505050565b6005546008541415610824576040517f08c379a000000000000000000000000000000000000000000000000000000000815260040161081b90611d84565b60405180910390fd5b600460009054906101000a900473ffffffffffffffffffffffffffffffffffffffff1673ffffffffffffffffffffffffffffffffffffffff163373ffffffffffffffffffffffffffffffffffffffff1614156108b5576040517f08c379a00000000000000000000000000000000000000000000000000000000081526004016108ac90611df0565b60405180910390fd5b6000600a60003373ffffffffffffffffffffffffffffffffffffffff1673ffffffffffffffffffffffffffffffffffffffff1681526020019081526020016000205411610937576040517f08c379a000000000000000000000000000000000000000000000000000000000815260040161092e90611e82565b60405180910390fd5b60016008600082825461094a91906119d5565b925050819055506000600a60003373ffffffffffffffffffffffffffffffffffffffff1673ffffffffffffffffffffffffffffffffffffffff168152602001908152602001600020549050600b60006001836109a691906119d5565b815260200190815260200160002060006101000a81549073ffffffffffffffffffffffffffffffffffffffff0219169055600a60003373ffffffffffffffffffffffffffffffffffffffff1673ffffffffffffffffffffffffffffffffffffffff1681526020019081526020016000206000905560003373ffffffffffffffffffffffffffffffffffffffff16600654604051610a4290611b4a565b60006040518083038185875af1925050503d8060008114610a7f576040519150601f19603f3d011682016040523d82523d6000602084013e610a84565b606091505b5050905080610ac8576040517f08c379a0000000000000000000000000000000000000000000000000000000008152600401610abf90611bab565b60405180910390fd5b5050565b600460009054906101000a900473ffffffffffffffffffffffffffffffffffffffff1673ffffffffffffffffffffffffffffffffffffffff163373ffffffffffffffffffffffffffffffffffffffff161415610b5d576040517f08c379a0000000000000000000000000000000000000000000000000000000008152600401610b5490611eee565b60405180910390fd5b600654341015610ba2576040517f08c379a0000000000000000000000000000000000000000000000000000000008152600401610b9990611f80565b60405180910390fd5b6000600a60003373ffffffffffffffffffffffffffffffffffffffff1673ffffffffffffffffffffffffffffffffffffffff1681526020019081526020016000205414610c24576040517f08c379a0000000000000000000000000000000000000000000000000000000008152600401610c1b90611fec565b60405180910390fd5b600c60009054906101000a900460ff1615610c74576040517f08c379a0000000000000000000000000000000000000000000000000000000008152600401610c6b9061207e565b60405180910390fd5b60055460085410610cba576040517f08c379a0000000000000000000000000000000000000000000000000000000008152600401610cb190612110565b60405180910390fd5b600654341115610ceb5760065434610cd291906119d5565b60076000828254610ce39190611ac3565b925050819055505b600160086000828254610cfe9190611ac3565b92505081905550600854600a60003373ffffffffffffffffffffffffffffffffffffffff1673ffffffffffffffffffffffffffffffffffffffff1681526020019081526020016000208190555033600b60006001600854610d5f91906119d5565b815260200190815260200160002060006101000a81548173ffffffffffffffffffffffffffffffffffffffff021916908373ffffffffffffffffffffffffffffffffffffffff1602179055506005546008541415610dd3576001600960006101000a81548160ff0219169083151502179055505b565b60035481565b60065481565b600960009054906101000a900460ff1681565b60085481565b60075481565b600460009054906101000a900473ffffffffffffffffffffffffffffffffffffffff1681565b600460009054906101000a900473ffffffffffffffffffffffffffffffffffffffff1673ffffffffffffffffffffffffffffffffffffffff163373ffffffffffffffffffffffffffffffffffffffff1614610eb6576040517f08c379a0000000000000000000000000000000000000000000000000000000008152600401610ead9061217c565b60405180910390fd5b7f000000000000000000000000000000000000000000000000000000000000000073ffffffffffffffffffffffffffffffffffffffff1663a9059cbb337f000000000000000000000000000000000000000000000000000000000000000073ffffffffffffffffffffffffffffffffffffffff166370a08231306040518263ffffffff1660e01b8152600401610f4c919061181b565b602060405180830381865afa158015610f69573d6000803e3d6000fd5b505050506040513d601f19601f82011682018060405250810190610f8d91906121b1565b6040518363ffffffff1660e01b8152600401610faa9291906121de565b6020604051808303816000875af1158015610fc9573d6000803e3d6000fd5b505050506040513d601f19601f82011682018060405250810190610fed9190612233565b50565b7f000000000000000000000000000000000000000000000000000000000000000073ffffffffffffffffffffffffffffffffffffffff163373ffffffffffffffffffffffffffffffffffffffff161461107e576040517f08c379a0000000000000000000000000000000000000000000000000000000008152600401611075906122ac565b60405180910390fd5b61108882826113df565b5050565b3373ffffffffffffffffffffffffffffffffffffffff16600460009054906101000a900473ffffffffffffffffffffffffffffffffffffffff1673ffffffffffffffffffffffffffffffffffffffff161461111c576040517f08c379a00000000000000000000000000000000000000000000000000000000081526004016111139061217c565b60405180910390fd5b60006007549050600060078190555060003373ffffffffffffffffffffffffffffffffffffffff168260405161115190611b4a565b60006040518083038185875af1925050503d806000811461118e576040519150601f19603f3d011682016040523d82523d6000602084013e611193565b606091505b50509050806111d7576040517f08c379a00000000000000000000000000000000000000000000000000000000081526004016111ce90611bab565b60405180910390fd5b5050565b600b6020528060005260406000206000915054906101000a900473ffffffffffffffffffffffffffffffffffffffff1681565b60055481565b6000600c60009054906101000a900460ff1615611266576040517f08c379a000000000000000000000000000000000000000000000000000000000815260040161125d9061233e565b60405180910390fd5b600960009054906101000a900460ff166112b5576040517f08c379a00000000000000000000000000000000000000000000000000000000081526004016112ac906123aa565b60405180910390fd5b6002547f000000000000000000000000000000000000000000000000000000000000000073ffffffffffffffffffffffffffffffffffffffff166370a08231306040518263ffffffff1660e01b8152600401611311919061181b565b602060405180830381865afa15801561132e573d6000803e3d6000fd5b505050506040513d601f19601f8201168201806040525081019061135291906121b1565b1015611393576040517f08c379a000000000000000000000000000000000000000000000000000000000815260040161138a9061243c565b60405180910390fd5b6113a16001546002546114e7565b905090565b600c60019054906101000a900473ffffffffffffffffffffffffffffffffffffffff1681565b600c60009054906101000a900460ff1681565b8060038190555060006005546003546113f8919061245c565b9050600b600082815260200190815260200160002060009054906101000a900473ffffffffffffffffffffffffffffffffffffffff16600c60016101000a81548173ffffffffffffffffffffffffffffffffffffffff021916908373ffffffffffffffffffffffffffffffffffffffff1602179055506001600c60006101000a81548160ff0219169083151502179055507f745c90b656b4aafe296c8ca35aeacfe56cb96c90e1d320e5da643fff1051b6c0600c60019054906101000a900473ffffffffffffffffffffffffffffffffffffffff166040516114da919061181b565b60405180910390a1505050565b60007f000000000000000000000000000000000000000000000000000000000000000073ffffffffffffffffffffffffffffffffffffffff16634000aea07f00000000000000000000000000000000000000000000000000000000000000008486600060405160200161155b92919061248d565b6040516020818303038152906040526040518463ffffffff1660e01b81526004016115889392919061254f565b6020604051808303816000875af11580156115a7573d6000803e3d6000fd5b505050506040513d601f19601f820116820180604052508101906115cb9190612233565b5060006115ed8460003060008089815260200190815260200160002054611637565b905060016000808681526020019081526020016000205461160e9190611ac3565b6000808681526020019081526020016000208190555061162e8482611673565b91505092915050565b600084848484604051602001611650949392919061258d565b6040516020818303038152906040528051906020012060001c9050949350505050565b60008282604051602001611688929190612614565b60405160208183030381529060405280519060200120905092915050565b600080fd5b600073ffffffffffffffffffffffffffffffffffffffff82169050919050565b60006116d6826116ab565b9050919050565b6116e6816116cb565b81146116f157600080fd5b50565b600081359050611703816116dd565b92915050565b60006020828403121561171f5761171e6116a6565b5b600061172d848285016116f4565b91505092915050565b6000819050919050565b61174981611736565b82525050565b60006020820190506117646000830184611740565b92915050565b61177381611736565b811461177e57600080fd5b50565b6000813590506117908161176a565b92915050565b600080604083850312156117ad576117ac6116a6565b5b60006117bb85828601611781565b92505060206117cc85828601611781565b9150509250929050565b60008115159050919050565b6117eb816117d6565b82525050565b600060208201905061180660008301846117e2565b92915050565b611815816116cb565b82525050565b6000602082019050611830600083018461180c565b92915050565b6000819050919050565b61184981611836565b811461185457600080fd5b50565b60008135905061186681611840565b92915050565b60008060408385031215611883576118826116a6565b5b600061189185828601611857565b92505060206118a285828601611781565b9150509250929050565b6000602082840312156118c2576118c16116a6565b5b60006118d084828501611781565b91505092915050565b6118e281611836565b82525050565b60006020820190506118fd60008301846118d9565b92915050565b600082825260208201905092915050565b7f73656e645265776172642063616e206f6e6c792062652063616c6c656420696660008201527f207468652077696e6e6572206973206465636c61726564000000000000000000602082015250565b6000611970603783611903565b915061197b82611914565b604082019050919050565b6000602082019050818103600083015261199f81611963565b9050919050565b7f4e487b7100000000000000000000000000000000000000000000000000000000600052601160045260246000fd5b60006119e082611736565b91506119eb83611736565b9250828210156119fe576119fd6119a6565b5b828203905092915050565b6000611a1482611736565b9150611a1f83611736565b9250817fffffffffffffffffffffffffffffffffffffffffffffffffffffffffffffffff0483118215151615611a5857611a576119a6565b5b828202905092915050565b7f4e487b7100000000000000000000000000000000000000000000000000000000600052601260045260246000fd5b6000611a9d82611736565b9150611aa883611736565b925082611ab857611ab7611a63565b5b828204905092915050565b6000611ace82611736565b9150611ad983611736565b9250827fffffffffffffffffffffffffffffffffffffffffffffffffffffffffffffffff03821115611b0e57611b0d6119a6565b5b828201905092915050565b600081905092915050565b50565b6000611b34600083611b19565b9150611b3f82611b24565b600082019050919050565b6000611b5582611b27565b9150819050919050565b7f4661696c656420746f2073656e64204574686572000000000000000000000000600082015250565b6000611b95601483611903565b9150611ba082611b5f565b602082019050919050565b60006020820190508181036000830152611bc481611b88565b9050919050565b7f6f6e6c79206f776e65722063616e2063616c6c20726573657400000000000000600082015250565b6000611c01601983611903565b9150611c0c82611bcb565b602082019050919050565b60006020820190508181036000830152611c3081611bf4565b9050919050565b7f72657365742063616e206f6e6c792062652063616c6c6564206166746572207760008201527f696e6e6572206973206465636c61726564000000000000000000000000000000602082015250565b6000611c93603183611903565b9150611c9e82611c37565b604082019050919050565b60006020820190508181036000830152611cc281611c86565b9050919050565b6000611cd482611736565b91507fffffffffffffffffffffffffffffffffffffffffffffffffffffffffffffffff821415611d0757611d066119a6565b5b600182019050919050565b7f43616e6e6f7420756e7374616b652e20417320616c6c2074686520706c61796560008201527f72732068617665207374616b6564210000000000000000000000000000000000602082015250565b6000611d6e602f83611903565b9150611d7982611d12565b604082019050919050565b60006020820190508181036000830152611d9d81611d61565b9050919050565b7f6f776e65722063616e6e6f7420756e7374616b65000000000000000000000000600082015250565b6000611dda601483611903565b9150611de582611da4565b602082019050919050565b60006020820190508181036000830152611e0981611dcd565b9050919050565b7f7374616b657220686173206e6f207374616b652e20546865792063616e6e6f7460008201527f20756e7374616b652e0000000000000000000000000000000000000000000000602082015250565b6000611e6c602983611903565b9150611e7782611e10565b604082019050919050565b60006020820190508181036000830152611e9b81611e5f565b9050919050565b7f6f776e65722063616e6e6f74207374616b650000000000000000000000000000600082015250565b6000611ed8601283611903565b9150611ee382611ea2565b602082019050919050565b60006020820190508181036000830152611f0781611ecb565b9050919050565b7f616d6f756e74206d7573742062652067726561746572207468616e207374616b60008201527f65416d6f756e7400000000000000000000000000000000000000000000000000602082015250565b6000611f6a602783611903565b9150611f7582611f0e565b604082019050919050565b60006020820190508181036000830152611f9981611f5d565b9050919050565b7f63616e6e6f74207374616b6520616761696e0000000000000000000000000000600082015250565b6000611fd6601283611903565b9150611fe182611fa0565b602082019050919050565b6000602082019050818103600083015261200581611fc9565b9050919050565b7f77696e6e657220686173206265656e206465636c617265642e2043616e6e6f7460008201527f207374616b6520616e796d6f7265000000000000000000000000000000000000602082015250565b6000612068602e83611903565b91506120738261200c565b604082019050919050565b600060208201905081810360008301526120978161205b565b9050919050565b7f6d6178207374616b65727320726561636865642e204e6f206d6f72652073746160008201527f6b696e672e000000000000000000000000000000000000000000000000000000602082015250565b60006120fa602583611903565b91506121058261209e565b604082019050919050565b60006020820190508181036000830152612129816120ed565b9050919050565b7f6f6e6c79206f776e65722063616e207769746864726177000000000000000000600082015250565b6000612166601783611903565b915061217182612130565b602082019050919050565b6000602082019050818103600083015261219581612159565b9050919050565b6000815190506121ab8161176a565b92915050565b6000602082840312156121c7576121c66116a6565b5b60006121d58482850161219c565b91505092915050565b60006040820190506121f3600083018561180c565b6122006020830184611740565b9392505050565b612210816117d6565b811461221b57600080fd5b50565b60008151905061222d81612207565b92915050565b600060208284031215612249576122486116a6565b5b60006122578482850161221e565b91505092915050565b7f4f6e6c7920565246436f6f7264696e61746f722063616e2066756c66696c6c00600082015250565b6000612296601f83611903565b91506122a182612260565b602082019050919050565b600060208201905081810360008301526122c581612289565b9050919050565b7f77696e6e657220686173206265656e206465636c617265642e2043616e6e6f7460008201527f2063616c6c2067657452616e646f6d4e756d62657220616761696e2e00000000602082015250565b6000612328603c83611903565b9150612333826122cc565b604082019050919050565b600060208201905081810360008301526123578161231b565b9050919050565b7f72616e646f6d206e756d6265722063616e6e6f742062652063616c6c65640000600082015250565b6000612394601e83611903565b915061239f8261235e565b602082019050919050565b600060208201905081810360008301526123c381612387565b9050919050565b7f4e6f7420656e6f756768204c494e4b202d2066696c6c20636f6e74726163742060008201527f7769746820666175636574000000000000000000000000000000000000000000602082015250565b6000612426602b83611903565b9150612431826123ca565b604082019050919050565b6000602082019050818103600083015261245581612419565b9050919050565b600061246782611736565b915061247283611736565b92508261248257612481611a63565b5b828206905092915050565b60006040820190506124a260008301856118d9565b6124af6020830184611740565b9392505050565b600081519050919050565b600082825260208201905092915050565b60005b838110156124f05780820151818401526020810190506124d5565b838111156124ff576000848401525b50505050565b6000601f19601f8301169050919050565b6000612521826124b6565b61252b81856124c1565b935061253b8185602086016124d2565b61254481612505565b840191505092915050565b6000606082019050612564600083018661180c565b6125716020830185611740565b81810360408301526125838184612516565b9050949350505050565b60006080820190506125a260008301876118d9565b6125af6020830186611740565b6125bc604083018561180c565b6125c96060830184611740565b95945050505050565b6000819050919050565b6125ed6125e882611836565b6125d2565b82525050565b6000819050919050565b61260e61260982611736565b6125f3565b82525050565b600061262082856125dc565b60208201915061263082846125fd565b602082019150819050939250505056fea26469706673582212208ade02c1cd00b81ea601d44e0514db7f79e8efbe99986cef2f3989d93f9b749b64736f6c634300080c0033",
  "immutableReferences": {
    "73": [
      {
        "length": 32,
        "start": 3768
      },
      {
        "length": 32,
        "start": 3829
      },
      {
        "length": 32,
        "start": 4794
      },
      {
        "length": 32,
        "start": 5355
      }
    ],
    "75": [
      {
        "length": 32,
        "start": 4082
      },
      {
        "length": 32,
        "start": 5415
      }
    ]
  },
  "source": "// KOVAN address - 0x54d457f23597fAE8E3Bc8a036a1A5bB95445Cd92\n\n// SPDX-License-Identifier: MIT\npragma solidity ^0.8.7;\n\nimport \"@chainlink/contracts/src/v0.8/VRFConsumerBase.sol\";\n\ncontract GamblingGame is VRFConsumerBase {\n    bytes32 internal keyHash;\n    uint256 internal fee;\n\n    uint256 public randomResult;\n\n    address public owner;\n    uint256 public N;\n    uint256 public stakeAmount;\n    uint256 public contractBalance;\n    uint256 public currentStakers;\n    bool public canCallGetRandomNumber;\n\n    mapping(address => uint256) public stakerMapping;\n    mapping(uint256 => address) public indexToStakerMapping;\n\n    bool public winnerDeclared;\n    address public winnerAddress;\n    event Winner(address);\n\n    /**\n     * Constructor inherits VRFConsumerBase\n     *\n     * Network: Kovan\n     * Chainlink VRF Coordinator address: 0xdD3782915140c8f3b190B5D67eAc6dc5760C46E9\n     * LINK token address:                0xa36085F69e2889c224210F603D836748e7dC0088\n     * Key Hash: 0x6c3699283bda56ad74f6b855546325b68d482e983852a7a82979cc4807b641f4\n     */\n    constructor(uint256 _N, uint256 _stakeAmount)\n        VRFConsumerBase(\n            0xdD3782915140c8f3b190B5D67eAc6dc5760C46E9, // VRF Coordinator\n            0xa36085F69e2889c224210F603D836748e7dC0088 // LINK Token\n        )\n    {\n        keyHash = 0x6c3699283bda56ad74f6b855546325b68d482e983852a7a82979cc4807b641f4;\n        fee = 0.1 * 10**18; // 0.1 LINK (Varies by network)\n        owner = msg.sender;\n\n        require(\n            _N >= 3,\n            \"Number of players should be greater than or equal to 3\"\n        );\n        N = _N;\n        stakeAmount = _stakeAmount;\n    }\n\n    function stake() public payable {\n        require(msg.sender != owner, \"owner cannot stake\");\n        require(\n            msg.value >= stakeAmount,\n            \"amount must be greater than stakeAmount\"\n        );\n        require(stakerMapping[msg.sender] == 0, \"cannot stake again\");\n        require(\n            !winnerDeclared,\n            \"winner has been declared. Cannot stake anymore\"\n        );\n        require(currentStakers < N, \"max stakers reached. No more staking.\");\n\n        if (msg.value > stakeAmount) {\n            contractBalance += msg.value - stakeAmount;\n        }\n\n        currentStakers += 1;\n        stakerMapping[msg.sender] = currentStakers;\n        indexToStakerMapping[currentStakers - 1] = msg.sender;\n\n        if (currentStakers == N) {\n            canCallGetRandomNumber = true;\n        }\n    }\n\n    function unstake() public {\n        require(\n            currentStakers != N,\n            \"Cannot unstake. As all the players have staked!\"\n        );\n        require(msg.sender != owner, \"owner cannot unstake\");\n        require(\n            stakerMapping[msg.sender] > 0,\n            \"staker has no stake. They cannot unstake.\"\n        );\n\n        currentStakers -= 1;\n        uint256 val = stakerMapping[msg.sender];\n        delete indexToStakerMapping[val - 1];\n        delete stakerMapping[msg.sender];\n\n        (bool sent, ) = payable(msg.sender).call{value: stakeAmount}(\"\");\n        require(sent, \"Failed to send Ether\");\n    }\n\n    /**\n     * Requests randomness\n     */\n    function getRandomNumber() public returns (bytes32 requestId) {\n        require(\n            !winnerDeclared,\n            \"winner has been declared. Cannot call getRandomNumber again.\"\n        );\n        require(canCallGetRandomNumber, \"random number cannot be called\");\n        require(\n            LINK.balanceOf(address(this)) >= fee,\n            \"Not enough LINK - fill contract with faucet\"\n        );\n        requestId = requestRandomness(keyHash, fee);\n    }\n\n    /**\n     * Callback function used by VRF Coordinator\n     */\n    function fulfillRandomness(bytes32, uint256 randomness) internal override {\n        randomResult = randomness;\n\n        uint256 index = randomResult % N;\n        winnerAddress = indexToStakerMapping[index];\n\n        winnerDeclared = true;\n        emit Winner(winnerAddress);\n    }\n\n    function sendReward() public {\n        require(\n            winnerDeclared,\n            \"sendReward can only be called if the winner is declared\"\n        );\n\n        uint256 totalReward = address(this).balance - contractBalance;\n        uint256 rewardForWinner = (totalReward * 99) / 100;\n        contractBalance = contractBalance + totalReward - rewardForWinner;\n\n        (bool sent, ) = payable(winnerAddress).call{value: rewardForWinner}(\"\");\n        require(sent, \"Failed to send Ether\");\n    }\n\n    function withdrawEth() public {\n        require(owner == msg.sender, \"only owner can withdraw\");\n        uint256 withdrawableEth = contractBalance;\n        contractBalance = 0;\n        (bool sent, ) = payable(msg.sender).call{value: withdrawableEth}(\"\");\n        require(sent, \"Failed to send Ether\");\n    }\n\n    //Implement a withdraw function to avoid locking your LINK in the contract\n    function withdrawLink() public {\n        require(msg.sender == owner, \"only owner can withdraw\");\n        LINK.transfer(msg.sender, LINK.balanceOf(address(this)));\n    }\n\n    function reset(uint256 _N, uint256 _stakeAmount) public {\n        require(msg.sender == owner, \"only owner can call reset\");\n        require(\n            winnerDeclared,\n            \"reset can only be called after winner is declared\"\n        );\n        sendReward();\n        withdrawEth();\n\n        randomResult = 0;\n        N = _N;\n        stakeAmount = _stakeAmount;\n\n        canCallGetRandomNumber = false;\n        winnerDeclared = false;\n        winnerAddress = address(0);\n\n        for (uint256 i = 0; i < currentStakers; i++) {\n            address staker = indexToStakerMapping[i];\n            delete stakerMapping[staker];\n            delete indexToStakerMapping[i];\n        }\n\n        currentStakers = 0;\n    }\n}\n",
  "sourcePath": "/Users/np/Desktop/projects/interview/Nord/contracts/GamblingGame.sol",
  "compiler": {
    "name": "solc",
    "version": "0.8.12+commit.f00d7308.Emscripten.clang"
  },
  "schemaVersion": "3.4.3",
  "updatedAt": "2022-03-11T13:58:49.804Z",
  "networkType": "ethereum",
  "devdoc": {
    "kind": "dev",
    "methods": {},
    "version": 1
  },
  "userdoc": {
    "kind": "user",
    "methods": {
      "constructor": {
        "notice": "Constructor inherits VRFConsumerBase Network: Kovan Chainlink VRF Coordinator address: 0xdD3782915140c8f3b190B5D67eAc6dc5760C46E9 LINK token address:                0xa36085F69e2889c224210F603D836748e7dC0088 Key Hash: 0x6c3699283bda56ad74f6b855546325b68d482e983852a7a82979cc4807b641f4"
      },
      "getRandomNumber()": {
        "notice": "Requests randomness"
      }
    },
    "version": 1
  }
}